:020000040800F2
:10000000D00A00209D0200082D0D00082F0D0008C9
:10001000330D0008370D00083B0D000800000000FC
:10002000000000000000000000000000B101000816
:10003000B10200080000000039020008890200082F
:10004000B7020008B7020008B7020008B7020008AC
:10005000B7020008B7020008B7020008B70200089C
:10006000B7020008B7020008B7020008B70200088C
:10007000B7020008B7020008B7020008B70200087C
:10008000B7020008B7020008B7020008B70200086C
:10009000B7020008B7020008B7020008B70200085C
:1000A000B7020008B7020008B7020008B70200084C
:1000B000B7020008B7020008B7020008B70200083C
:1000C000B7020008B7020008B7020008B70200082C
:1000D000B7020008B7020008B7020008B70200081C
:1000E000B7020008B7020008B7020008B70200080C
:1000F000B7020008B7020008B7020008B7020008FC
:10010000B7020008B7020008B7020008B7020008EB
:10011000B7020008B7020008B7020008B7020008DB
:10012000B7020008B7020008B7020008B7020008CB
:10013000DFF810D002F006F800480047E50C000890
:10014000AFF30080D00A002080F309887047EFF3F6
:1001500009807047684680F3098804480078C00722
:1001600014BF0220032080F314887047A0210008E8
:10017000DFF818C0EFF305831B0618BF6047EFF3E5
:100180001483DB0708BF604700DF7047F90D0008E4
:10019000DFF818C0EFF305831B0618BF6047EFF3C5
:1001A0001483DB0708BF604700DF70473F0E00087D
:1001B000EFF30980816911F8021C39BB90E80F1038
:1001C000E047EFF3098C194B93E80600914218D0F1
:1001D00059B10CB44FF0010381F826302CE9F00F2F
:1001E000C1F82CC001F056F80CBC1A60D2F82CC033
:1001F000BCE8F00F92F826308CF309881BB192F816
:100200002500CCF800006FF0020E704710B5084AC8
:100210001268914209D8074C54F8214090E80F1019
:10022000A047EFF3098C8CE80F0010BD38000020C8
:10023000682100086821000800F0ADFF114B93E829
:10024000060091421BD00CB44FF0000381F8263019
:10025000EFF3098C2CE9F00FC1F82CC001F01AF86B
:100260000CBC1A60D2F82CC0BCE8F00F8CF30988E3
:1002700092F826301BB192F82530CCF800306FF0A0
:10028000020E70473800002000F0E8FFD6E70000BB
:1002900000F0E3FF00F0E2FFD0E7000006488047EF
:1002A00006480047FEE7FEE7FEE7FEE7FEE7FEE75B
:1002B000FEE7FEE7FEE7FEE79F03000831010008C6
:1002C0000CB50020019000906C48006840F480302C
:1002D0006A49086000BF6948006800F40030009077
:1002E0000198401C0190009818B90198B0F5A06FD2
:1002F000F1D16248006800F4003010B10120009094
:1003000001E0002000900098012843D15C4800687B
:1003100040F010005A4908600846006820F00300C9
:1003200008600846006840F00200086053484068D2
:10033000524948600846406848600846406840F4B2
:10034000806048600846406820F47C104860084699
:10035000406840F4E81048600846006840F080704B
:10036000086000BF4548006800F000700028F9D020
:100370004248406820F00300404948600846406811
:1003800040F00200486000BF3C48406800F00C00AC
:100390000828F9D10CBD10B5FFF792FF10BD10B5BC
:1003A0003648006840F0010034490860084640685B
:1003B00034490840314948600846006832490840DD
:1003C0002E4908600846006820F48020086008462E
:1003D000406820F4FE0048604FF41F008860FFF77B
:1003E000DAFF4FF000602949086010BD10B5002108
:1003F00000200022214B5B6803F00C0121B104298D
:1004000006D0082928D107E0214B224C236027E0A1
:100410001F4B204C236023E0184B5B6803F47010E3
:10042000164B5B6803F48032022303EB904022B941
:10043000194B4343174C23600DE0104B5B6803F4EA
:10044000003323B1144B4343124C236003E0104BA1
:100450004343104C236003E00D4B0E4C236000BF60
:1004600000BF064B5B68C3F303130C4CE15C094B04
:100470001B68CB40074C236010BD000000100240F9
:10048000002002400000FFF8FFFFF6FE08ED00E04C
:1004900000127A000000002000093D000400002046
:1004A00031490143314A1160704770B50021002382
:1004B0000F22C47804B32D4C246804F4E064C4F51E
:1004C000E064210AC1F10403CA40447804FA03F14C
:1004D0008478144021430901254C0678A1550478FD
:1004E00004F01F050124AC4005786D11AD0005F145
:1004F000E025C5F8004109E0047804F01F05012457
:10050000AC401C4D0678761145F8264070BD1A4A5D
:100510000A400243154B1B1F1A60704739B1134A3A
:10052000121D12680243114B1B1D1A6006E00F4A90
:10053000121D126882430D4B1B1D1A607047042860
:1005400008D14FF0E021096941F004014FF0E022A9
:10055000116107E04FF0E021096921F004014FF03B
:10056000E0221161704700000000FA050CED00E088
:1005700000E400E080E100E080FFFF1F10B50446CA
:10058000CC48844208D10121042000F02DFB002139
:10059000042000F029FB46E0C748844208D101212D
:1005A000082000F021FB0021082000F01DFB3AE0AC
:1005B000C248844208D10121102000F015FB00211F
:1005C000102000F011FB2EE0BD48844208D101212B
:1005D000202000F009FB0021202000F005FB22E094
:1005E000B848844208D10121402000F0FDFA0021E2
:1005F000402000F0F9FA16E0B348844208D1012106
:10060000802000F0F1FA0021802000F0EDFA0AE0ED
:10061000AE48844207D10121801500F0E5FA00219F
:10062000A01500F0E1FA10BD10B50121084600F058
:10063000DBFA0021012000F0D7FA10BD2DE9F041CE
:10064000024600250026002000230024002791F800
:1006500003C00CF00F0591F803C00CF0100CBCF1B6
:10066000000F03D091F802C04CEA050591F800C0D4
:10067000BCF1000F31D0146800202BE04FF0010CCA
:100680000CFA00F3B1F800C00CEA03069E4220D138
:1006900083004FF00F0C0CFA03F7BC4305FA03FC80
:1006A0004CEA040491F803C0BCF1280F06D14FF0C6
:1006B000010C0CFA00FCC2F814C00AE091F803C067
:1006C000BCF1480F05D14FF0010C0CFA00FCC2F848
:1006D00010C0401C0828D1D31460B1F800C0BCF190
:1006E000FF0F34DD546800202EE000F1080C4FF0BD
:1006F000010808FA0CF3B1F800C00CEA03069E42A8
:1007000021D183004FF00F0C0CFA03F7BC4305FA1C
:1007100003FC4CEA040491F803C0BCF1280F05D196
:1007200000F1080C08FA0CF8C2F8148091F803C024
:10073000BCF1480F07D100F1080C4FF0010808FA8E
:100740000CF8C2F81080401C0828CED35460BDE8D5
:10075000F0814FF6FF710180022181700421C17088
:1007600070470246002093680B400BB1012000E067
:10077000002070470146886880B27047024600201A
:10078000D3680B400BB1012000E000207047014608
:10079000C86880B2704701617047416170470AB113
:1007A000016100E041617047C16070474FF48032E1
:1007B0000A4382618161826182698269704702466F
:1007C0000020434B18684FF68073184040EA02102F
:1007D00008433F4B186070473E49C8617047F0B509
:1007E0000A46002300240021002500F00046B6F14F
:1007F000004F02D1364EF16901E0354E7168C0F309
:10080000034583B200F44016B6F5401F08D121F02D
:1008100070612F4E766826F070662D4F7E6012E074
:1008200000F48016B6F5801F06D1032606FA05F4FB
:10083000A14341F0706106E0460D360103FA06F669
:10084000B14341F0706122B1460D360103FA06F65C
:10085000314300F00046B6F1004F02D11C4EF16169
:1008600001E01B4E7160F0BD30B500228B071C0FFC
:100870000F2303FA04F2164B08338C1053F824307C
:100880009343134C08348D1044F8253023468C10C4
:1008900053F824308C07240F00FA04F423430C4C43
:1008A00008348D1044F8253030BD0A49DC31086029
:1008B0007047000000080140000C0140001001409A
:1008C0000014014000180140001C014000200140BC
:1008D0000000014000002042DF48006840F00100B5
:1008E000DD49086008464068DC490840DA4948604C
:1008F00008460068DA490840D74908600846006899
:1009000020F4802008600846406820F4FE0048601B
:100910004FF41F0088607047CF49096821F4803187
:10092000CD4A11601146096821F480211160B0F5AB
:10093000803F03D0B0F5802F0ED106E0C64909688C
:1009400041F48031C44A116007E0C349096841F4A9
:10095000A021C14A116000E000BF00BF704710B580
:1009600001460022002300204A11012A02D1BA4C7C
:10097000236806E0022A02D1B74C236A01E0B64C94
:10098000636A01F01F02012494401C400CB1012055
:1009900000E0002010BD38B50020009000240025A4
:1009A00000BF3120FFF7DBFF05460098401C009098
:1009B0000098B0F5A06F01D0002DF2D03120FFF7E4
:1009C000CEFF08B1012400E00024204638BD0146D6
:1009D0000020A14A106820F0F80040EAC100106031
:1009E0007047A04908607047024600209A4B58683B
:1009F00020F47C1042EA01031843974B586070477B
:100A000098490866704701460020934A506820F0D4
:100A100003000843506070478F48406800F00C00A6
:100A20007047014600208C4A506820F0F0000843CF
:100A30005060704701460020874A506820F4E0600B
:100A400008435060704701460020834A506820F4F4
:100A5000605040EAC1005060704729B17E4A527A26
:100A600002437D4B5A7204E07B4A527A82437A4BAE
:100A70005A7270477B49D8310860704701460020A0
:100A8000754A506820F44040084350607047002188
:100A9000714A20321170704A82F82010012802D069
:100AA00004280AD104E001216B4A2032117005E0CC
:100AB0000521694A2032117000E000BF00BF704775
:100AC0006949086070476449096A0143624A1162D2
:100AD0007047654944390860704730B500210022ED
:100AE000002400235C4D6D6805F00C0121B1042940
:100AF00005D0082923D105E05C4D056022E05B4D5F
:100B000005601FE0544D6D6805F47012524D6D681C
:100B100005F48034022505EB92421CB9544D55432F
:100B200005600BE04C4D6D6805F400351DB1504D6E
:100B30005543056002E04D4D5543056002E04B4DC5
:100B4000056000BF00BF444D6D6805F0F001090964
:100B5000484D6B5C0568DD4045603F4D6D6805F4B0
:100B6000E061090A434D6B5C4568DD4085603A4DA4
:100B70006D6805F46051C90A3E4D6B5C4568DD4007
:100B8000C560354D6D6805F44041890B3A4D6B5C8D
:100B9000C568B5FBF3F5056130BD29B12E4A526930
:100BA00002432D4B5A6104E02B4A526982432A4B7F
:100BB0005A61704729B1284A92690243264B9A61CB
:100BC00004E0254A92698243234B9A61704729B118
:100BD000214AD2690243204BDA6104E01E4AD269FD
:100BE00082431D4BDA61704729B11B4AD268024328
:100BF000194BDA6004E0184AD2688243164BDA6077
:100C0000704729B1144A12690243134B1A6104E078
:100C1000114A12698243104B1A61704712494039D8
:100C2000086070470F49C86470470B49C871704726
:100C30000948406A40F080700749486270470146A1
:100C40000020054A92680A400AB1012000E0002015
:100C50007047014988727047001002400000FFF899
:100C6000FFFFF6FE000042428004424200127A007A
:100C700000093D00140000202400002000BF642073
:100C8000DFF888C000DF0EE02020214908600A203C
:100C9000DFF880C000DF20201D49091F08600A20FE
:100CA000DFF870C000DFEFE700231B4A1B49AFF2FB
:100CB0003300DFF86CC000DF7047FFF7F5FF10E08E
:100CC0000120134908604FF47A70DFF848C000DF54
:100CD00001200F49091F08604FF47A70DFF834C013
:100CE00000DFEDE74FF44070FFF7DAFBFFF77EFB24
:100CF00000F026F8FFF72EFA0A4A0849891CAFF2DD
:100D00004500DFF824C000DF00BFFEE7151800082B
:100D1000140C0140071800085801002002000100CF
:100D2000B11400085800002073160008704700BF77
:100D3000FEE700BFFEE700BFFEE700BFFEE70000E2
:100D400008B501210820FFF735FF2020ADF800008D
:100D500010208DF8030003208DF8020069460F482B
:100D6000FFF76CFC0120ADF8000069460B48FFF767
:100D700065FC0220ADF8000069460848FFF75EFCFC
:100D800020210648FFF707FD01210448FFF703FD76
:100D900002210248FFF7FFFC08BD0000000C0140E3
:100DA000F0B503460E4602F0004030B122F000409C
:100DB000C01D20F00702102503E0D01C20F0030224
:100DC0000C250AB90120F0BD5019B04201D901200B
:100DD000F9E7591919609F195F609A60BF1A05E019
:100DE0008C18BC4200D902E00C602146F8E700BF35
:100DF0000020086000BFE6E7014600BF51E8000F91
:100E000010B9BFF32F8F04E0036841E80032002AD5
:100E1000F4D100BF70472DE9F04107463846FFF78F
:100E2000A7F9044644B12546BE6803E000202860C7
:100E30002D1D361F002EF9D12046BDE8F081024657
:100E4000914202D35068884201D80120704700BF08
:100E500052E8000F086042E800100028F8D100BFF7
:100E6000F4E7000000201649086016480088C88092
:100E7000704710B5124800681349496888420BD082
:100E8000114840680E4908600846C0880F49098823
:100E90000844401E0A498880094880880B4909880F
:100EA00089B288420AD1002005490860064800F04E
:100EB00027FE04462146044800F002FE10BD000053
:100EC00028000020982100089C06002040000020F7
:100ED0000A46014602230B7000234B604A8070478C
:100EE00070B505462C46606890B1204600F008FEBB
:100EF0000646032086F82500304600F0D2FE304634
:100F000000F031FA00202949096881F8250002E043
:100F10006088401C6080002070BD70B505460E469C
:100F20002C46608820B16088401E6080002070BD23
:100F30000EB90120FBE7606828B11C480168204613
:100F400000F0BEFD09E01948006860600020174904
:100F5000096848601548006884600721304600F041
:100F600026FA0120E3E770B504462546002128460D
:100F700000F0ABFE00F003F970BD70B5054668687F
:100F800080B1284600F0BCFD0446204600F089FEF2
:100F900001206070032084F825002146044800F0F9
:100FA0008FFD02E06888401C688070BD380000201A
:100FB0009C060020C1480068002811DA05204FF087
:100FC000E02108610120BE490870BE480068052183
:100FD00001EA9060BC4908704006BA49086019E00F
:100FE000B648007800F01F0101208840B349096825
:100FF0004911890001F1E021C1F880010120B049C7
:101000000870B0480068C0F30070AF490870C006AF
:10101000AC490860704700B54FF6FF72FFF7CAFF92
:10102000AA48C06808B1A948828AA948006828B1BE
:10103000A7488088904201D2A5488288104600BD0A
:101040009E480068002813DA07204FF0E02108616D
:1010500000209B4908709C4800789E49097840EA26
:10106000810080069749086000209A4908701BE0BB
:101070009248007800F01F01012088408F490968DC
:101080004911890001F1E021C1F8000100208C49DB
:1010900008708D4800788F4909780843000789490E
:1010A000086000208B490870704770B50546012024
:1010B0008949096848708849086800F03AFD0020AD
:1010C000864908608148C06860B32C467F48808AA2
:1010D000A0421CD87D48808A241A7C48808A804996
:1010E000096808447E49086001207849888209E03F
:1010F00000F094FD04B909E0641E79480068401CC2
:10110000774908607148C0680028F1D10FE0744841
:1011100000682044724908606C48808A001B6B4953
:10112000888204E06E48006828446D490860684879
:101130000068D0B12C4666488088A04210D8644828
:101140008088241A01206249888004E000F08AFB2C
:1011500004B904E0641E5E4800680028F6D104E08B
:101160005B488088001B5A4988805E4800F0C8FCB4
:101170000646304600F0F2F8FFF762FF70BD5048B7
:10118000007820B94FF080504E49086002E00120FD
:1011900050490870704770B501204F490968487080
:1011A0004D49086800F0C5FC4F48447832E04E488D
:1011B000001D50F83450287848B94B48001D00EB0A
:1011C000C400808881B2284600F04AFC0EE02878EE
:1011D000012808D14448001D00EBC400416828469E
:1011E00000F0DBFE02E02846FFF7C7FE601C044665
:1011F0003D49C978884200D1002400BF3A48801C8C
:10120000D0E84F0F401EC1B23748801CC0E8421FD3
:10121000002AF3D1344880780028C8D132494C7074
:10122000304800F06DFC0646304600F097F870BD7F
:1012300000BF2E4800684FF0E0214861002088611F
:10124000072008611F481C30006840F07F401D499E
:101250001C31086000BF48177047704710B5012067
:101260001D49096848701C49086800F062FCFFF7D6
:1012700000FE1B480068401C1949086000F0CEFCC5
:1012800000F0F0FA174800F03BFC0446204600F05E
:1012900065F810BD10B510480068C06A0E490968AD
:1012A000096B884206D30C480068006B006810493F
:1012B000884202D0012000F044FB10BD3000002025
:1012C0003400002004ED00E036000020B4060020C9
:1012D00044000020350000203800002028000020B5
:1012E000400000209C060020000600209C210008F1
:1012F000A52E5AE2012107E0481EFE4A52F82000BE
:1013000008B908467047491CFB4800888142F3D958
:101310000020F7E770B504460D4616460020207001
:1013200001206070A57084F8245000206060A060E7
:10133000E06020612062A082E0822083608384F8E4
:10134000250084F82600208D18B9EC48FFF754FDDD
:1013500020633146204600F08FFE70BDE8494860AA
:1013600002214170704710B504463CB9E54800F0D1
:10137000C7FB04462046FFF7F1FF17E0A078E049DD
:101380000968897888420BDDDD49086800F0D1FBE7
:101390000120DB49096848702046FFF7DFFF05E0C0
:1013A000012060702146D74800F08AFB10BD70B55F
:1013B00004460D4694B14FF6FF70844204DAD049DA
:1013C0000868214600F0FEFBCD4800684570CD4816
:1013D00000F096FB06463046FFF7C0FF70BD10B523
:1013E00000F0AFFB04465CB1C5480168C54800F099
:1013F00067FB0120C249096848702046FFF7AEFF2D
:1014000010BDBF48006808B900207047BC4800689C
:10141000C078FAE770B506460C46F6B9B8480068D9
:101420008470B748006880F8244000BFB548406821
:101430008078A0420FDDB2480168B24800F040FB5E
:101440000120AF49096848700020AD49096881F85A
:101450002500FFF788FF002070BDA748008886425E
:1014600004D8701EA34951F8200008B9FF20F3E703
:10147000701EA04951F82050AC7085F82440A04857
:101480000068A84200D1D1E7284600F083FB6878C5
:1014900001280BD19B4800F033FB054600209849FA
:1014A000096881F825002846FFF75DFF0020D3E793
:1014B0002DE9F04707460D4690469946E8B200B937
:1014C0006D1C9148FFF798FC044614B90020BDE854
:1014D000F087C4F83080C5F30F202085C4F81C9035
:1014E000E9B23A462046FFF715FFFFF703FF06462D
:1014F000701E804941F82040E6702046FFF733FF18
:101500007F49096881F825603046E0E72DE9F04120
:10151000074627B17A480068C078B8424AD100200F
:10152000774909684870FEF712FE75490968C86274
:10153000FFF7B0FE72480068046A1CE06068C8B13A
:10154000204600F0DDFA0546052085F825002846EE
:1015500000F0A7FB0120687029466A4800F0B0FA45
:10156000264601206080A560286AE0602C62F06851
:10157000044600E0E468002CE0D1002160480068E7
:10158000C078401E5B4A42F820105D480068016B3D
:101590005A48FFF754FC0020594909680863584825
:1015A00001685948FFF74BFC002055490860FFF7D8
:1015B000DAFE5CE050480088874204D8781E4D4926
:1015C00051F8200010B9FF20BDE8F081781E49498C
:1015D00051F82080404600F0C5FA404600F061FB1B
:1015E000D8F820401CE06068C8B1204600F088FAB6
:1015F0000546052085F82500284600F052FB01200D
:10160000687029463F4800F05BFA2646012060805A
:10161000A560286AE0602C62F068044600E0E46897
:10162000002CE0D10021781E324A42F820103348C5
:10163000D8F83010FFF703FC0020C8F8300041460E
:101640003148FFF7FCFB2F48406880782C49096837
:10165000897888420BDD01202949096848702848AB
:101660000168284800F02CFA0020FFF77CFE0020DB
:10167000AAE72DE9F04105460E461746002404E08E
:1016800000201C4941F82400641C1B480088844247
:10169000F6D338221D4801881B48FFF781FB1C4800
:1016A000008880B240F000421A4801681348FFF7F2
:1016B00077FB08221848018818480068FFF770FB7C
:1016C000FF201749C87000200885164A00211448D9
:1016D000FFF720FE04200B4908700020486004201A
:1016E000114908700020C860086188820C49C96AE5
:1016F0001CE000008406002090210008F003002078
:10170000380000209C06002090020020AC21000838
:1017100094210008B0210008B62100084C000020E8
:10172000580200203D190008B406002001F12000F5
:10173000FEF70AFD2C482D49086002200968487010
:1017400000202B49087048702A480078C870FFF7BD
:1017500089FB00BF284A126842F47F02264B1A60B8
:101760001A4612684FF07F4303EA0222D243B2FACC
:1017700082F2C2F10800204A143A1268C2F3022130
:10178000814200DB481C1C4A121F13686FF08072F4
:10179000824063F31702184B1B1F1A6000BFFFF74C
:1017A00047FD1649086008460068002814DBFF2141
:1017B0001248006800F1E02080F800140F4800781B
:1017C00000F01F01012088400C4909684911890077
:1017D00001F1E021C1F8000100233A4631462846D4
:1017E000FFF766FEBDE8F0815802002038000020B7
:1017F00000060020B421000820ED00E030000020A9
:1018000016480068704710B5044603212046FFF7CC
:10181000CEFD10BD12490968C882104909880144EB
:101820000F4A12689182704710B50D480068808A8F
:101830000A490988401A84B209480068808A084920
:101840000968C98A084406490968888204F4004086
:1018500018B904212046FFF7AAFD10BD4000002062
:101860003800002010B53348006800B910BD314879
:101870008088401E2F4988800CE0E08800F060F8E6
:10188000A0882C4988802068086021462A48006882
:10189000FFF7D5FA2748808818B926480468002C35
:1018A000EBD100BFE2E72DE9F04707468946B8468D
:1018B00017B12148006810B90020BDE8F0871E4824
:1018C0000068FFF799FA05460DB90020F5E7A5F87D
:1018D0000690184CA68802E02468A0880644464575
:1018E00002D220680028F7D120682860A6EB080003
:1018F000A8802560A088A988401AA0802846DCE737
:1019000070B5064635460B4C04E0206808B92846F9
:1019100070BD24682068A842F7D128682060A0889C
:10192000A9880844A080294603480068FFF787FA81
:101930000020EDE7440000204C00002000BFFEE73F
:10194000704700BFFEE700002DE9F04104460E4657
:1019500017468FB157480068008B2040A04209D13C
:1019600054480068008BA04352490968088302204C
:10197000BDE8F081062515E04E480068008B204048
:1019800078B14C480068008B20404A490968488378
:1019900048480068008BA043464909680883022034
:1019A000E6E70525434800684483E9B23046FFF77F
:1019B000FEFC0120DCE770B505460E46701E3E4970
:1019C00051F8204004B970BD208B28432083658BDB
:1019D0006078062804D1208B2840A84200D10AE074
:1019E0006078052818D1208B2840A8B1608B218B06
:1019F0000840608300BF208BA8432083204600F06E
:101A000050F9208BA843208301206070022084F8C5
:101A100025002046FFF7A7FC00BFD4E710B502461B
:101A20004B1E254C54F8230000B910BD038B934383
:101A3000038300BFF9E770B504460E46701E1E49C9
:101A400051F8205005B970BD2146284600F03DF9F7
:101A5000FFF795FB00BFF6E716480068408B70471C
:101A600070B504460E46208B30432083658B60782A
:101A7000062804D1208B2840A84200D10AE06078D3
:101A8000052816D1208B284098B1608B218B084007
:101A9000608300BF208BA8432083204600F001F91B
:101AA00001206070022084F825002146034800F0E0
:101AB00007F870BD38000020840600209C06002036
:101AC00030B50A4600240578022D05D00578012D91
:101AD00002D00578032D00D101249378416801E0FC
:101AE0000846496811B18D789D42F9D25160426033
:101AF0001CB101B18A60906001E00025956030BDA5
:101B00000146486842684A600A78022A05D00A7885
:101B1000012A02D00A78032A08D142681AB1426821
:101B20009160002242600022826001E00022426057
:101B3000704784494968416000218160814948605B
:101B400070478048416888787F4A1268927890424E
:101B500006D17C48406840687A4A50600846704721
:101B60000020FCE7826842B1D0E901235A60426854
:101B700012B1D0E901329A607047724906E04A68B2
:101B8000824202D142684A60F6E749680029F6D1EC
:101B900000BFF1E730B50546A86820B9687801288C
:101BA0000FD1684C06E0AC6800E0A46820780028FB
:101BB000FBD000BF2846FFF7D5FF29462046FFF798
:101BC0007FFF30BD70B50C4623466049CD680DB926
:101BD000002205E05D4DAA8A0EE0CD684DB900BF38
:101BE0000025C560C86001619D1A8D82002585822F
:101BF00070BDC9688D8A2A449A42EED3CD68C5600B
:101C0000C8600161C5680DB1C5682861D51A8582B3
:101C10008D8A868AAD1B8D8200BFE9E710B54B48DF
:101C2000C06800B910BD4948808A401E4749888273
:101C30002EE04648C468A06858B1D4E90101486064
:101C4000606820B1D4E90110886000206060002045
:101C5000A06021463B48FFF733FFA08A3B498882BA
:101C60006078042804D1E08A394909880844A082B0
:101C70000120607084F825003449E068C860E0689D
:101C800020B10846E16808610020E0600020206182
:101C90002E48808A18B92D48C0680028C9D100BFD5
:101CA000C0E7016981B1C268CA60C26842B18A8A6C
:101CB000838A1A448A82C26811610022C26001E0EC
:101CC00000228A820022026170472DE9F041054618
:101CD0000E462048C178821C034600BF00BFD2E8F0
:101CE0004F0F884202D1BFF32F8F18E000F1010C93
:101CF0000CF0FF08C2E84C8FBCF1000FEFD100BF21
:101D0000D3E84FCF6046471C8F4200D1002707F031
:101D1000FF08C3E84C8FBCF1000FF1D100BF0446AF
:101D20000C48C078A04207D90A48001D40F834503A
:101D300000EBC400466002E00220FFF702FEBDE8AF
:101D4000F08100009C06002038000020B40600202E
:101D500040000020000600200A46014601230B70C7
:101D600000234B704B600B814B818B81A2F11003E0
:101D7000C3F38F03CB8170472DE9F04107460D4631
:101D800090463C466068B0B1A089A0B92046FFF7F4
:101D9000B7FE0646F0690560042086F82500304647
:101DA000FFF77FFF3046FFF7DEFA0020B0490968F1
:101DB00081F8250041E0A089E189884222D1B8F16B
:101DC000000F02D10120BDE8F081606828B1A84869
:101DD00001682046FFF774FE0BE0A54800686060CC
:101DE0000020A34909684860A14800688460012078
:101DF00060709F480068C56108214046FFF7D7FA28
:101E00000120E0E7218904F1100040F8215000BFD3
:101E100004F10C00D0E85F0F401C81B204F10C000B
:101E2000C0E8521F002AF3D12089401C80B22081D3
:101E3000E189884201D1002020810020C3E72DE9FB
:101E4000F04106460F4690463446A089002842D00D
:101E5000618904F1100050F8210038606089401C4D
:101E600080B26081E189884201D100206081606890
:101E700008B32046FFF744FE0546002085F82500FC
:101E8000228904F11000E96940F822102089401CE1
:101E900080B22081E189884201D10020208128463A
:101EA000FFF7FFFE2846FFF75EFA00207049096839
:101EB00081F825000CE000BF04F10C00D0E85F0FB2
:101EC000401E81B204F10C00C0E8521F002AF3D179
:101ED0000020BDE8F081B8F1000F01D10120F8E742
:101EE000606828B1624801682046FFF7E9FD09E013
:101EF0005F480068606000205D49096848605C4890
:101F00000068846008214046FFF751FA584800688D
:101F1000C7610120DDE701460A46D0899389C01ACE
:101F2000704770B504460D46264629463046FFF7F1
:101F3000CCFEFFF724F970BD70B505460E462C4661
:101F4000A08940B3618904F1100050F8210030608D
:101F50006078012807D10220607000212046FFF739
:101F6000B4FEFFF70CF900BF04F10C00D0E85F0FDE
:101F7000401E81B204F10C00C0E8521F002AF3D1C8
:101F80006089401C80B26081E189884201D10020D3
:101F90006081042070BD0020FCE770B504460E4649
:101FA000606840B36078022825D100206070204628
:101FB000FFF7A6FD0546002085F82500228904F1DB
:101FC0001000E96940F8221000BF04F10C00D0E8CD
:101FD0005F0F401C81B204F10C00C0E8521F002AC0
:101FE000F3D12089401C80B22081E189884201D14F
:101FF000002020810DE06068A8B1A08998B9204632
:10200000FFF77EFD0546E8690660042085F8250097
:1020100000BF012068702846FFF743FE2946154897
:10202000FFF74EFD22E0A089E18988421BDA218971
:1020300004F1100040F8216000BF04F10C00D0E86A
:102040005F0F401C81B204F10C00C0E8521F002A4F
:10205000F3D12089401C80B22081E189884205D1DA
:102060000020208102E00320FFF76BFC70BD000020
:10207000380000209C06002070B502460B46158DE6
:10208000AC101CB9294D2D88C5F38D04156B05EBDB
:10209000840000F0040505B1001F40384FF0807542
:1020A000C5638363002103E0002540F82150491CEB
:1020B0000E29F9D3D5690562D06253631C4D166BA6
:1020C000356070BD1B48006800F0807068B11A4828
:1020D000006800F0010040B117488038006800F047
:1020E000004010B1012015490870704700BF4FF043
:1020F0006042D26F002AFAD04FF06043426BDA6739
:1021000000BF4FF06042D26F002AFAD0C27842EA94
:1021100001220B4B1A80704700BF4FF06041C96F1E
:102120000029FAD0064A1070704700009421000878
:10213000A52E5AE2FCED00E0800E00E050000020E9
:102140007C0000E0064C074D06E0E06840F001032B
:1021500094E8070098471034AC42F6D3FDF7ECFF43
:10216000B8210008D82100080000000002E008C8DB
:10217000121F08C1002AFAD170477047002001E001
:1021800001C1121F002AFBD1704700004900040062
:102190000600000000020601050001003F190100D1
:1021A00001000000E8030000000000005C010000E6
:1021B0001002000010000000D821000800000020DC
:1021C000540000006C2100082C220008540000205C
:1021D0007C0A00007C21000800A24A0400000000E4
:1021E00000000000010203040607080900000000C7
:1021F0000102030401020304060708090204060899
:1022000000000000000000000000000000000000CE
:1022100000000000000000000000000000000000BE
:0C222000000000000000000000000000B2
:0400000508000131BD
:00000001FF
